:020000040800F2
:10000000600600206D0100087501000877010008F6
:10001000790100087B0100087D0100080000000054
:100020000000000000000000000000007F01000848
:10003000810100080000000083010008850100081C
:100040008701000887010008870100088701000870
:100050008701000887010008870100088701000860
:100060008701000887010008870100088701000850
:100070008701000887010008870100088701000840
:100080008701000887010008870100088701000830
:100090008701000887010008870100088701000820
:1000A0008701000887010008870100088701000810
:1000B0008701000887010008870100088701000800
:1000C00087010008870100088701000887010008F0
:1000D00087010008870100088701000887010008E0
:1000E00087010008870100088701000800F002F876
:1000F00000F02CF80AA090E8000C82448344AAF196
:100100000107DA4501D100F021F8AFF2090EBAE893
:100110000F0013F0010F18BFFB1A43F0010318473B
:10012000C0040000D00400000023002400250026A5
:10013000103A28BF78C1FBD8520728BF30C148BF4A
:100140000B6070471FB51FBD10B510BD00F031F832
:100150001146FFF7F7FF00F073F900F04FF803B412
:10016000FFF7F2FF03BC00F057F800000948804792
:1001700009480047FEE7FEE7FEE7FEE7FEE7FEE789
:10018000FEE7FEE7FEE7FEE704480549054A064BA1
:100190007047000089030008ED000008600000209F
:1001A0006006002060020020600200207047704757
:1001B0007047754600F02CF8AE4605006946534678
:1001C00020F00700854618B020B5FFF7DDFFBDE839
:1001D00020404FF000064FF000074FF000084FF0AE
:1001E000000B21F00701AC46ACE8C009ACE8C0093F
:1001F000ACE8C009ACE8C0098D46704710B50446AC
:10020000AFF300802046BDE81040FFF7A8BF000014
:10021000004870470000002001491820ABBEFEE7EF
:100220002600020070470000102002490860C00349
:100230000860704710080140082002490860400427
:100240000860704710080140642800DD6420054AFA
:100250001288521C4243642392FBF3F1014B083392
:10026000198070472C2C01400348008840F00100A1
:100270000149088070470000002C014005480088B3
:1002800020F00100034908804FF4C01002490860C3
:1002900070470000002C01401008014010B500F02C
:1002A00001F810BD0CB500200190009033480068A3
:1002B00040F480303149086000BF3048006800F4E5
:1002C000003000900198401C0190009818B90198E6
:1002D000B0F5A06FF1D12948006800F4003010B1EA
:1002E0000120009001E0002000900098012843D1F7
:1002F0002348006840F01000214908600846006863
:1003000020F0070008600846006840F0020008601E
:100310001A484068194948600846406848600846DD
:10032000406840F4806048600846406820F47C10D3
:1003300048600846406840F4E81048600846006895
:1003400040F08070086000BF0C48006800F000704A
:100350000028F9D00948406820F0030007494860A8
:100360000846406840F00200486000BF034840680B
:1003700000F00C000828F9D10CBD0000001002406C
:10038000002002407047000010B51348006840F09C
:1003900001001149086008464068104908400E49AC
:1003A0004860084600680E4908400B490860084646
:1003B000006820F4802008600846406820F4FE00B1
:1003C00048604FF41F008860FFF768FF4FF000603F
:1003D0000449086010BD0000001002400000FFF852
:1003E000FFFFF6FE08ED00E00848806940F00400D9
:1003F000064988610648006820F470400449086096
:100400000846006840F480500860704700100240C1
:10041000000801400848806940F0040006498861EE
:100420000648006820F47020044908600846006807
:1004300040F480300860704700100240000801401E
:1004400008B5FFF79FFFFFF7CFFFFFF7E3FF00F0CF
:100450008BF880E0FFF7F0FEFFF706FF00240EE0C8
:100460002046FFF7F1FE0020009002E00098401CBB
:100470000090394900988842F8DB601D84B2642CF2
:10048000EEDD0020009002E00098401C009033490F
:1004900000988842F8DBFFF7C7FE64240EE0204690
:1004A000FFF7D2FE0020009002E00098401C009070
:1004B000294900988842F8DB601F84B2002CEEDCEA
:1004C0000020009002E00098401C00902349009812
:1004D0008842F8DBFFF7A8FE00240EE02046FFF775
:1004E000B3FE0020009002E00098401C00901C49E0
:1004F00000988842F8DB601D84B2642CEEDDFFF7C3
:10050000BDFE0020009002E00098401C00901249BF
:1005100000988842F8DBFFF78FFEFFF7A5FE142056
:10052000FFF792FE0020009002E00098401C00902F
:100530000C4900988842F8DBFFF776FE1420FFF79D
:1005400083FE0020009002E00098401C00900549C6
:1005500000988842F8DB7DE740420F0020A10700A9
:10056000A086010000E1F5051A48806940F6040103
:100570000843184988611848006820F00F001649A0
:1005800008600846006840F00B0008601148806968
:1005900040F400600F49886100201049088041F64E
:1005A000FF000E49283108806320091D0880602063
:1005B0000A49183108800120084920310880C00309
:1005C0000649443108800548008840F0010003498D
:1005D000088070470010024004080140002C0140D0
:1005E000F005000800000020600600002801000857
:040000050800016D81
:00000001FF
